:030000000205A650
:0C05A600787FE4F6D8FD7581200205ED99
:0F080300C10042022600004102280041022900E4
:03000B00020003ED
:03000300D20032F6
:1004CB00900227E004F07006900226E004F0C3903F
:1004DB000227E09464900226E0940050030205A5E5
:1004EB00E4F0A3F0A3E014604214607724026003ED
:1004FB000205A5E4900211F0900211E0FFC39442B3
:10050B005022E4900215F0A3F0A374C8F0A3740377
:10051B00F0A374E8F0E4FB7DFF12000E900211E0F3
:10052B0004F080D49002287401F022E4900211F0C0
:10053B00900211E0FFC394425022E4900215F0A305
:10054B00F0A374C8F0A37403F0A374E8F07BFFE48A
:10055B00FD12000E900211E004F080D4900228747A
:10056B0002F022E4900211F0900211E0FFC39442DA
:10057B00502390021574FFF0A3E4F0A374C8F0A30A
:10058B007403F0A374E8F0E4FBFD12000E9002116B
:0A059B00E004F080D3E4900228F0A1
:0105A5002233
:10071B0043BA80120632438E805389F0758A407536
:08072B008CA2D28CD2A9D2AF3E
:10073300E4900210F0900210E0FFC39442501AE4D8
:10074300900215F0A3F0A3F0A3F0A3F0FBFD1200B9
:090753000E900210E004F080DCBD
:05075C003000FDC200A9
:10076100900229E004F0C3940A40F0E4F01201F28F
:030771001204CBA4
:0207740080E61D
:0207E600C2B29D
:1007E8009002127404F0A374C8F0900213E014F09D
:0A07F80070F8900212E014F070F0A7
:0108020022D3
:0407B200F583E0FFEC
:1007B600E4FEEF30E712D2B20000000000000000B5
:1007C60000000000C2B2800ED2B20000C2B2000029
:0F07D600000000000000EF25E0FF0EEEB408D396
:0107E50022F1
:10077600C2AF1207E6E4FDED75F003A4244BF58243
:10078600E434011207B2ED75F003A4244AF582E4BD
:1007960034011207B2ED75F003A4244CF582E4345B
:0B07A600011207B20DEDB442CED2AF3D
:0107B1002225
:1006320043B20453B1FBE4FFEF75F003A4244AF57F
:1006420082E43401F583E4F0EF75F003A4244BF562
:1006520082E43401F583E4F0EF75F003A4244CF551
:1006620082E43401F583E4F0EF75F003A42400F58D
:1006720082E43400F583E4F0EF75F003A42401F57D
:1006820082E43400F583E4F0EF75F003A42402F56C
:1006920082E43400F583E4F0EF25E024C6F582E439
:0D06A2003400F583E4F0A3F00FEFB4428BB9
:0106AF002228
:05000E00900212EFF06A
:10001300C3944240030201F1AF057E00900216E053
:10002300FCA3E0FD12049E780A12044E90021A12F9
:100033000461AF037E00900216E0FCA3E0FD12040E
:100043009E780A12044E90021E120461900215E07B
:10005300FF7E00A3E0FCA3E0FD12049E780A1204D5
:100063004E900222120461E47FFFFEFDFC90021A0F
:10007300E0F8A3E0F9A3E0FAA3E0FBD312043D40C8
:100083000A90021A12046D000000FFE47FFFFEFDD8
:10009300FC90021EE0F8A3E0F9A3E0FAA3E0FBD38F
:1000A30012043D400A90021E12046D000000FFE49A
:1000B3007FFFFEFDFC900222E0F8A3E0F9A3E0FA43
:1000C300A3E0FBD312043D400A90022212046D0008
:1000D3000000FF90021AA3A3A3E0FF900212E0FB2B
:1000E30075F003A42400F582E43400F583EFF09067
:1000F300021EA3A3A3E0FFEB75F003A42401F58282
:10010300E43400F583EFF0900222A3A3A3E0FF9071
:100113000212E0FD75F003A42402F582E43400F535
:1001230083EFF0900218E0FEA3E0FF4E60030201AC
:10013300B1900212E0FC75F003A42400F582E434CC
:1001430000F583E0FBEC75F003A4244AF582E43464
:1001530001F583EBF0900212E0FC75F003A4240197
:10016300F582E43400F583E0FBEC75F003A4244B43
:10017300F582E43401F583EBF0900212E0FC75F0B4
:1001830003A42402F582E43400F583E0FBEC75F06C
:1001930003A4244CF582E43401F583EBF0ED25E070
:1001A30024C6F582E43400F583E4F0A3F0227C0056
:1001B3007D0A12039C900212E0FD25E024C6F5821D
:1001C300E43400F583EEF0A3EFF0ED25E024C6F56B
:1001D30082E43400F583E0FEA3E04E7011ED25E0E8
:0E01E30024C6F582E43400F583E4F0A304F0B2
:0101F10022EB
:1006B000F583E0FDEE25E024C6F582E43400F58301
:0506C000E0FAA3E0FBDD
:0F06C500900213EAF0A3EBF0A905900212EFF0F8
:1006D400E9C39FFFE49400AB07FAA3E07002A3E030
:1006E4006004EB4A7003AF0122900213E0FEA3E022
:1006F400FDAC06AF03AE021203F1EF4E7012D3EB62
:100704009400EA6480948040047F01800374FFFFB6
:06071400900212E02FFF2D
:01071A0022BC
:1001F200C201E4900211F0900211E0FFC394424068
:1002020003020395EF25E024C6F582E43400F5836A
:10021200E0FAA3E0FBD39400EA940050030202DB6D
:10022200D201900211E0FE75F003A4244AF582E4A3
:100232003401F583E0FFEE75F003A42400F582E4B7
:100242003400F583E0FD1206C5900211E0FE75F060
:1002520003A4244AF582E43401F583EFF0EE75F04D
:1002620003A4244BF582E43401F583E0FFEE75F03C
:1002720003A42401F582E434001206B0900211E0D6
:10028200FE75F003A4244BF582E43401F583EFF00C
:10029200EE75F003A4244CF582E43401F583E0FF0B
:1002A200EE75F003A42402F582E434001206B09045
:1002B2000211E0FE75F003A4244CF582E43401F54A
:1002C20083EFF0EE25E024C6F582E43400F5837472
:1002D200FFF5F012042702038C900211E0FF75F083
:1002E20003A42400F582E43400F583E0FEEF75F008
:1002F20003A4244AF582E43401F583E06E6015908C
:100302000211E075F003A4244AF582E43401F58376
:10031200EEF0D201900211E0FF75F003A42401F582
:1003220082E43400F583E0FEEF75F003A4244BF57C
:1003320082E43401F583E06E6015900211E075F0FD
:1003420003A4244BF582E43401F583EEF0D201904C
:100352000211E0FF75F003A42402F582E43400F5F3
:1003620083E0FEEF75F003A4244CF582E43401F53A
:1003720083E06E6015900211E075F003A4244CF541
:1003820082E43401F583EEF0D201900211E004F030
:090392000201F9300103120776A3
:01039B00223F
:1005B20002071BE493A3F8E493A34003F68001F23D
:1005C20008DFF48029E493A3F85407240CC8C3334A
:1005D200C4540F4420C8834004F456800146F6DF19
:1005E200E4800B0102040810204080900803E47E9E
:1005F200019360BCA3FF543F30E509541FFEE4930E
:10060200A360010ECF54C025E060A840B8E493A3D4
:10061200FAE493A3F8E493A3C8C582C8CAC583CAFF
:10062200F0A3C8C582C8CAC583CADFE9DEE780BEB7
:0108120000E5
:10039C00BC000BBE0029EF8DF084FFADF022E4CC45
:1003AC00F875F008EF2FFFEE33FEEC33FCEE9DEC0E
:1003BC00984005FCEE9DFE0FD5F0E9E4CEFD22ED54
:1003CC00F8F5F0EE8420D21CFEADF075F008EF2F9E
:1003DC00FFED33FD4007985006D5F0F222C398FD8F
:0503EC000FD5F0EA222C
:1003F100C2D5EC30E709B2D5E4C39DFDE49CFCEE27
:1004010030E715B2D5E4C39FFFE49EFE12039CC3FF
:10041100E49DFDE49CFC800312039C30D507C3E4FA
:060421009FFFE49EFE2295
:10042700C5F0F8A3E028F0C5F0F8E5821582700260
:060437001583E038F022FD
:10043D00EB9FF5F0EA9E42F0E99D42F0E89C45F015
:01044D00228C
:10044E00E8600FECC313FCED13FDEE13FEEF13FF8C
:03045E00D8F122B0
:0C046100ECF0A3EDF0A3EEF0A3EFF0220E
:10046D00A8828583F0D083D0821204841204841272
:10047D000484120484E473E493A3C583C5F0C58397
:10048D00C8C582C8F0A3C583C5F0C583C8C582C8D9
:01049D00223C
:10049E00EC8EF0A4CCC5F0CCCDF8EFA4CEC5F02DEB
:1004AE00FDE43CFCE8A42EC8C5F03DFDE43CFCEFA9
:0D04BE00A4FFE5F028FEE43DFDE43CFC2237
:00000001FF
